:1020000000800020654900004D4900004D49000056
:1020100000000000000000000000000000000000C0
:102020000000000000000000000000004D4900001A
:1020300000000000000000004D490000B949000008
:102040004D4900004D4900004D4900004D49000038
:102050004D4900004D4900004D4900005149000024
:102060004D4900004D4900004D4900004D49000018
:102070004D49000019280000092800004D490000C2
:102080004D4900004D4900004D4900004D490000F8
:10209000000000004D4900004D4900004D4900007E
:1020A0004D4900004D4900004D4900004D490000D8
:1020B0000000000010B5064C2378002B07D1054B1B
:1020C000002B02D0044800E000BF0123237010BDA4
:1020D000A000002000000000A0770000044B10B515
:1020E000002B03D00349044800E000BF10BDC046E8
:1020F00000000000A4000020A077000002000023E0
:10210000FE320160037193869A2252008354362274
:10211000FF328354013283549E2102004900FC3275
:10212000D36343543E21FF31435407315364435436
:102130004621FF314354013143544821FF31435478
:10214000013143544A21FF3143541365536593656C
:102150007047A4235B00C05C7047FC30006D704783
:10216000FC30406D7047AA235B00C05A7047AB2318
:102170005B00C05A704702009A210023FE324900DA
:102180000371938643543621FF3143540131435444
:1021900053879E22520083543E22FF328354020012
:1021A000FC325364A22252008354023283544622EA
:1021B000FF3283544822FF328354704710B5040025
:1021C00000680368DB6998472000FFF7D4FFA4226A
:1021D00000235200A3544A22FF32A35410BD000032
:1021E000F0B505001020CDB001AE30700800717060
:1021F0001030132957D10324B2708018002B2ED031
:10220000529A002A2BD0102B04D1621C1030335567
:1022100080B294B2335552999BB2C018013B621CF4
:102220009BB24C1C1B1980B294B20A78A446102AA7
:1022300007D10127BC446746BFB2BC4610303255B7
:1022400080B2674664468018F25594220134A4B2E5
:1022500080B25200944224D801318B42E5D1102340
:102260001F223355631C9BB22F30F25480B2A31C43
:10227000020A9BB2F254E31C9BB2F0542868043467
:102280000368A4B25B683100220098470600286802
:102290000368DB689847B44210D0A42306225B0091
:1022A000EA5400200EE002241529A7D10649327114
:1022B000AD32FF327180100003349FE72800FFF732
:1022C0005AFF01204DB0F0BDE5A2FFFF07B54A223D
:1022D0000023FF328354013A83541D3A0093FF3A9E
:1022E0001321FFF77DFF0EBD70B50300292A01DC25
:1022F000032070BD0029FBD0C8788A780002024311
:10230000AA2040001A520A0029321078013A1278A5
:1023100000020243AB2040001A524C7B087B24028F
:1023200020438C7B4D792404044308792D02054316
:102330008879CA7B00040543C87912060006FC337D
:102340002843224318655A659B6D002BD0D1034961
:1023500002F05CFF434258410130CAE70000FA44F2
:10236000030070B5FE339E8EB2B00400022E1ED95B
:1023700083791A2B1BD1C5790021C822684604F045
:102380005CFE0023A9B29AB2914208D9DA1C9642A7
:1023900005DD6846E218127AC2540133F3E72A00D9
:1023A00069462000FFF7A0FFA4235B00E05432B091
:1023B00070BDF8B505002C23FE35AA8EFF3304004E
:1023C0000E009A4201D9FFF7D6FE9B214900625CBC
:1023D000102E2DD1002A49D19A20AB8F22791033AB
:1023E0009BB24000002A15D101322271AA86667183
:1023F000AB8722549E235B00E05C002809D02000BC
:10240000FFF7AEFF48230120FF33E0544A23FF3398
:10241000E054F8BDAA8E275C511C89B2A218002F87
:1024200003D0A9865671AB87E4E701272754F8E764
:102430001F2E19D19A235B00E35C002B14D0002AD5
:1024400014D1AB8E581CE318A8865E71AB8F1F3376
:10245000AB87012363542300FC335A646A879A23B1
:1024600000225B00E254C5E7002A25D02100AA8E95
:10247000FC31531C9BB2A218AB8656714A6C0132D8
:102480004A64012A02DC102EE9D1B3E7E318DA78B6
:102490001B7912029E211343012249006B8762546B
:1024A000A98F994205D03E23FF33E2540B33033208
:1024B000E254102ED3D1A2E7A2235B00E25C002AF3
:1024C0000BD046230122FF33E654093BE254AB8E86
:1024D0009A18E318AA865E71C1E72279002AD2D041
:1024E0009A225200A25C002A07D03622FF32A6545C
:1024F000192E0BD1353AFF3AE254AB8E5A1CE31831
:10250000AA865E71AB8F9E19AE87A8E7162EF4D10E
:10251000A32201235200A3540A3AA354EDE710B5B5
:102520000400206803681B699847002809D02068C8
:1025300003685B699847C1B22000FFF73AFF0028A3
:10254000EFD010BDF7B54F4D2878032800D997E09C
:1025500002F06CFD020D23884B494C4801F04CFC05
:1025600096214B488901FFF729FE01230EE0474CD5
:102570004849200001F040FC4548FFF7A7FE00282D
:1025800006D002F027FA444B186002232B70F7BDE7
:102590002000424901F030FC45E03D4E3000FFF79D
:1025A000BEFF002852D03000FFF7D3FD374C012882
:1025B0003FD13000FFF7D1FD394F3A493860200054
:1025C00001F009FC386804F087FC032702000B00C7
:1025D0000097200001F01CFD3349200001F0FBFBB7
:1025E0003000FFF7BDFD04F077FC00970B00020000
:1025F000200001F00DFD2D49200001F0ECFB300022
:10260000FFF7B1FD0A220100200001F042FC284939
:10261000200001F0E0FB3000FFF7A9FD01000A22D5
:10262000200001F036FC02F0D5F9224B186003239C
:10263000ACE73000FFF78DFD0228BAD01E4920001C
:1026400001F0C9FB3000FFF784FDE7E702F0C2F9B3
:10265000114B1B68C01AFA23DB00984297D917491F
:102660000A4897E702F0B6F9124B1B68C01A144BE0
:10267000984200D88BE71349044801F0BDFB74E78A
:10268000002383E7BC00002008720000B40600208D
:10269000CC0000201A720000C40000202C72000040
:1026A000C80000203872000046720000547200001A
:1026B0005E720000C000002068720000807200009E
:1026C000CF070000A472000010B502490248FFF7CE
:1026D00015FD10BD24020020CC000020E12110B522
:1026E000074C4902200000F0BFFA200000F0BEFABB
:1026F0000028FAD00349200001F07EFB10BDC0463F
:10270000B4060020BB72000010B5FFF71BFF10BD20
:1027100070B50121202002F0B1FB0021202002F041
:10272000F9FB0A2002F08CF90021202002F0A6FB20
:10273000642002F085F9202002F034FB9623050086
:102740009B002F4C984222D92E49200001F068FEB0
:10275000200001F051FD03210B2002F007FC0321B2
:102760000C2002F003FC00226B21200001F07AFD16
:102770000121200001F0B8FD1B21200001F0B4FD73
:102780002000032101F058FD200001F04AFD1D4901
:10279000200001F045FE200001F02EFD03210B205A
:1027A00002F0E4FB03210C2002F0E0FB00226B218D
:1027B000200001F057FD0721200001F095FD962330
:1027C0002B219B009D4200D92039200001F08CFD77
:1027D0000321200001F030FD200001F022FD012145
:1027E0001E2002F04BFB01211E2002F093FB012171
:1027F0001F2002F043FB01211F2002F08BFB70BD64
:10280000A4060020A086010010B5024801F0B7FF21
:1028100010BDC0462402002010B5024801F0AFFFF1
:1028200010BDC046600400207FB51949194801F069
:102830004DFC1949194801F049FC1949194801F0A2
:1028400045FC1949194801F041FC194C194920006F
:1028500001F03CFC184E1949300001F037FC01250D
:1028600003233100019500930D220B33144801F02E
:102870001BFF1D230393013B02931A3B0193009519
:1028800018331B2221000F4801F0CAFE7FBDC0464D
:10289000000800429C060020000C0042A006002018
:1028A00000100042A406002000140042A8060020E8
:1028B000AC06002000180042B0060020001C0042B8
:1028C00024020020600400200020704770B50F260D
:1028D000CB1D013902003240D5B22C000009303442
:1028E000092A00DD07341C70013B8B42F2D170BD18
:1028F00010B50C000B4B1868FFF7E8FF21000A4BDE
:1029000008311868FFF7E2FF2100084B1031186802
:10291000FFF7DCFF2100064B18311868FFF7D6FFE0
:10292000202010BD0CA0800040A0800044A08000AA
:1029300048A0800008B4024B9C46103808BC604791
:10294000F128000070473F20704713B56B460268BE
:10295000D9710733546819000122A04716BD000041
:1029600070B50A260B7892B06E44023305000B70E6
:102970003C220021300004F060FB394801AC069095
:10298000384824210790062020776846364AA174EB
:102990002281364A364BA281FD3AFF3A8018C17730
:1029A000684623390630C17768460730C17702A8E8
:1029B000C1770720F277032608316944C87703A955
:1029C000CE7710212B366E443170092621851F31B8
:1029D00069440E700CA9053E0E703321238002233A
:1029E00069440B7006360DA90E7022493536A18652
:1029F0003B216E44307010A86274E27702703D3261
:102A000069446A440B70137040210022E370237103
:102A10006371A37341336B44218719705A702B7D06
:102A2000C039A370A37263770133DBB2A3776A7DE9
:102A30000B200D0068441543C577312068440370AE
:102A40003A23501C6B441870412302320A436B44F2
:102A50001A7021004222084800F070FF12B070BDC9
:102A600010010424020605240904000001020000EC
:102A7000080B0000070500001C07002008B4024BEB
:102A80009C46103808BC60476129000070B5027D83
:102A90000B790C0000259A420BD10B784E78A12BB4
:102AA00009D1212E05D107221F49204800F046FFF9
:102AB0000135280070BD212BFBD1202E2BD1072200
:102AC00019491A4800F07CFE174B1A785978090208
:102AD00011439A7812041143DA7812060A439621B8
:102AE000C9008A421DD1DB79DB071AD4FA2001F034
:102AF0009FFA00210D4801F02DF80125232ED8D191
:102B0000E378A2781B021343094A002107481360A7
:102B100001F020F8CDE7222EEFD18A78024BDA714E
:102B2000D2E701F08FFAE4E7040000201C07002040
:102B30000000002008B4024B9C46103808BC6047D7
:102B40008D2A000010B5417D006A013100F070FD52
:102B5000034B1B6801335A1E9341181810BDC04621
:102B60000C00002010B5417D006A023100F076FDB6
:102B700010BD10B5417D006A023100F03DFD10BD71
:102B800070B50D00417D0400130002312A00006A77
:102B900000F02AFE002801D10123636070BD00000F
:102BA00010B5054C23685A1C04D103685B6998472B
:102BB00003002060180010BD0C000020074A03002D
:102BC000106810B5411C03D001235B42136010BD97
:102BD000597D186A013100F0B7FDF8E70C000020BC
:102BE0007047002070477047FA239B0010B5836040
:102BF0000F4B0022C3820300283383610D4B040076
:102C00004260C2611800443323610830631D2162B1
:102C10002060DA778323A362813BE36280332363FE
:102C200000F0C2F82100103100F092F8200010BD31
:102C30000302000028760000022110B5094B1A6833
:102C4000437D5B01D318FF339C7A21439972437D06
:102C50000133DBB25B01D3180122FF33997A0A43B7
:102C60009A7210BDD40B00207047000010B501F01F
:102C7000B1FEF423FF330024984207D9044B0A2005
:102C8000DC79631E9C41E4B201F0DAFE200010BD45
:102C90000400002010B502490248FFF7A5FF10BD4F
:102CA0001C070020B406002070B50E000025446803
:102CB000002C0BD0236831005B6820009847002867
:102CC00002DB2D18E468F3E701256D42280070BD92
:102CD00070B50D004468002C08D0236829009B685B
:102CE00020009847002802D1E468F4E7200070BD76
:102CF00070B50D0000264468002C09D02368290017
:102D000020001B69984736182D18F6B2E468F3E7DF
:102D100030002C7070BD70B50D004468002C08D0D8
:102D2000236829001B6820009847002802D1E46826
:102D3000F4E7200070BD70B50D004468002C06D08B
:102D400023682000DB6829009847E468F6E770BD37
:102D5000F0B58C79457803002A190020072A1FDC7A
:102D60005A68824216D159601A78C8790A711218C5
:102D70004D711A7000220B4DD0B284420FD98F686A
:102D800058789600F7598600013077510132587013
:102D9000F2E70200D0680028FBD1D160E4E701200F
:102DA000F0BDC046F40600200121064A10B51368A4
:102DB00005480B4004D18024640004804360116006
:102DC00010BDC046E8060020EC060020704710B594
:102DD000040001F07FFE200010BD0000F0B5822944
:102DE00019D1C3B2294D5A01AA189169284C800102
:102DF0000C40C021890521439161264908334018C0
:102E00007021506128685B011A5C8A4311003022EE
:102E10000A431A54F0BD0029FCD1C026C1B21B4C94
:102E20004B01E3189A681A4DB6052A4032439A605E
:102E3000194A800182185A600A000727246808325C
:102E40005201115DB9430F000121394311559F69AA
:102E500010493D4040182E439E6158617020115D1D
:102E60008143080010210143115599680B48A218AD
:102E7000084080214903014399609968890B8903BF
:102E80009960402311790B431371C3E7D40B0020E1
:102E9000FFFFFF8F4807002008090020FF3F00F0D8
:102EA000EFF3108303600123436072B67047036839
:102EB000002B02D162B6BFF36F8F7047F7B50600E3
:102EC000FC36B3690400002B18D1B2277F00C55D22
:102ED0006846FFF7E5FF019BEDB2013B02D3E55DDC
:102EE000EDB2FAE768460193FFF7E1FF002D01D14B
:102EF0000020FEBD706E336EC01AFAE76846FFF719
:102F0000CFFFD8220025019B5200013B02D3A55CD4
:102F1000EDB2FAE768460193FFF7C9FF002DE7D04D
:102F2000D6235B00E058043BE358E5E710B544685E
:102F3000FC3043690B48DBB25A01A2189168083390
:102F40000840802149030143916091685B01890B2E
:102F5000890391602268D318402219790A431A71B3
:102F600010BDC046FF3F00F0F7B50500FC356B69AA
:102F70004268DBB2190004000831106849014118A9
:102F8000C979C90711D55B01D21893689B049B0CC2
:102F90000CD12000FFF7CAFF63681A686B69DBB2C7
:102FA00008335B01D3187F22DA71F7BDE969002984
:102FB00023D16B66230001266933FF33EE61684637
:102FC0005360B227FFF76CFF7F00B221019BFF31F6
:102FD000013B5A1C38D0D822E6555200A25C581E3C
:102FE000D2B26254625C8446002A04D1200001936C
:102FF000FFF79CFFE9E76346EBE7D6214900635002
:103000000023EB6123001D33FF3353606846D8264D
:10301000FFF746FF01277600B221019BFF31013BFC
:103020005A1C11D0B222A7555200A25C581ED2B22F
:103030006254625C8446002A04D120000193FFF7A9
:1030400075FFE9E76346EBE768460193FFF72FFF5B
:10305000A2E7F7B5060068463400FFF721FF002716
:10306000FF22019BFC34013B0DD3E06821698842BB
:1030700004DBE7682069D71B3F18F4E72769E1689C
:103080007F1A013FEFE768460193FFF710FFA3693E
:103090006846002B52D1FFF703FFB221019B490084
:1030A000013B5A1C0CD0755C5A1EEDB2002D05D1A7
:1030B00068460193FFF7FBFE2800FEBD1300F0E712
:1030C000684601930025FFF7F2FEFF22236EBD4202
:1030D00014D0616E994211D9591CF3182166FF333F
:1030E000587FE36821690133C0B213408B4203D09B
:1030F000E16871180872E3600135E7E7626E9A4291
:10310000DAD1002323660133A3616846B224FFF7B6
:10311000C7FE6400B2220021019BFF32013B581C14
:10312000C6D03155B05C5F1E002805D0B1543000C8
:103130000193FFF7FBFEEDE73B00F0E7FFF7B0FE82
:10314000D821019B4900013B5A1C06D0755C5A1ED0
:10315000EDB2002DACD01300F6E768460193FFF7FF
:10316000A6FED623D4225B0000259C465200B3580D
:10317000BD4203D061467158994220D86246B25888
:103180009A4299D1D42200235200B3506846A361D9
:10319000D824FFF785FE6400B2220021019BFF3294
:1031A000013B581C00D183E73155B05C5F1E0028FD
:1031B00019D0B15430000193FFF7B8FEECE7591C69
:1031C000B150FF21F3186933FF331878E368C0B2B8
:1031D00001330B4021698B4203D0E16871180872FA
:1031E000E3600135C3E73B00DBE710B50400FFF700
:1031F00030FF2300FC331969DA68914203D01B6960
:10320000E418207A10BD01204042FBE710B504000D
:10321000FC34FFF71EFFE0682369C01A01D50130B6
:10322000FF3010BDF0B585B0019200910500FFF7A9
:1032300010FF02A8FFF734FE01200024FF26039BA5
:1032400040425A1E531C1FD02B00FC3301998C4264
:1032500018D2D9681F69C91B01D50131FF31002976
:1032600010D01969DF688C460100BC4506D0196989
:103270001F69691801373740097A1F61009F395566
:103280000134E3E7013ADDE702A80392FFF70FFEFE
:10329000200005B0F0BD37B56B46DC1D00230D00E6
:1032A0002370FFF781FD2100FFF7FEFC2B68181843
:1032B000286020783EBD00002023F7B5474A05006E
:1032C000D1690F200B43D361012245490B78134389
:1032D0000B70444B19788143197006211C782143E7
:1032E000197041490C7822430A701A7802401A700A
:1032F000602219780A431A703C4B3D4A5A805F7825
:10330000FF09FCD13B4801F05FFB01233A4C3B4EE7
:103310002268300011780B4313708022390052006C
:1033200003F08BFE22689378DB07FCD456621F26DD
:10333000334B1B68590B980C9B01314030405B0F9D
:10334000B14200D105211F2800D10238072B00D13E
:10335000043B31408901178D01912A4930400F40CB
:10336000019939431185118D0700B1430800384395
:103370001085118D1803244B7F260B4003430C202E
:1033800013850823D17881430B430321D37022682E
:10339000D3788B4301390B43D370226813783340C1
:1033A0001370042322681678334313702268C124F3
:1033B0001389A40083431548138103591B021B0A78
:1033C00003518023036013781148194301231170BE
:1033D0002B700021FFF748FCF7BDC04600040040F9
:1033E000584400413C44004159440041000C004015
:1033F00006400000653D0000D40B0020D80B0020E3
:10340000246080003FF8FFFFFF8FFFFF00E100E036
:10341000B40600200078002810D00121084B1B685A
:103420001A898A431A810822198B0A431A830422B3
:10343000198B0A431A830022024B1A607047C04658
:10344000D40B0020CC0B002010B50F4A93699B0BC6
:103450009B03936113680222FF331A729879823AB0
:1034600002439A711A7A9207FCD57F24074A2140B9
:10347000937A0800A3431900802301439172917A43
:103480005B420B43937210BDD40B002000500041EF
:1034900010B50C00FFF788FC2100FFF73CFC00286A
:1034A00004D1034A93699B0B9B03936110BDC046F3
:1034B000D40B0020F7B50D00832A19D1CBB2404CB4
:1034C0005A01A21891693F48AD010840C021890501
:1034D000014391613C4920686D18702108335561A2
:1034E0005B011A5C8A43110040220A431A54F7BD5B
:1034F000022A5FD1354B8A00D058002802D00368D9
:103500005B699847DA20400001F0E0FA802204006D
:103510002B4E2F4B4660036052000021083003F011
:103520008CFD2200B2210023FC324900D36055619A
:10353000136113669361D3615366635444316350DE
:103540000431635004316354B221FF316354FF20CE
:103550002B0003405901019371188F68194BAD007E
:103560003B40C027BF051F438F600727019B36687C
:1035700008335B01995DB9430F0003213943995525
:1035800023005169666801401D334901FF337118FA
:103590004B60636852691B68024052019B1801220C
:1035A0001B18997A20000A439A72FFF7BFFC074B59
:1035B000EC509CE711002800FFF710FC97E7C0468D
:1035C000D40B0020FFFFFF8F4807002020070020BA
:1035D0008876000070B505000124064BA200D25881
:1035E000002A06D0210028000134FFF763FF0A2CCF
:1035F000F3D170BDF40600200B4BCAB20B48890111
:10360000C9185301C318596199690832890B890394
:103610009961036852019A180223D3715179823B50
:103620000B4353717047C04648070020D40B00205D
:10363000084B8A00D05810B5002803D003689B6857
:10364000984710BDC9B2044B4901591888688004D5
:10365000800CF6E720070020D40B002010B50C00EA
:10366000FFF7E6FF00280CD0064BE4B21B680834D5
:1036700064011C19802362795B4213436371022346
:10368000E37110BDD40B0020F0B51C002A4B85B0AF
:103690001B6807000D000292002B4AD0274B8A00BE
:1036A000D058002808D0036822005B680299984728
:1036B0000400200005B0F0BD3800FFF7B9FF8442D8
:1036C00004D929003800FFF7B3FF04000121EBB251
:1036D0001B4E03935B010193F21893689B0B9B03B2
:1036E0009360019A336802989B18FF335A7A0A4311
:1036F0005A72144BA901C918220003F095FC002C42
:10370000D7D029003800FFF793FF0028D1D14021FE
:10371000039B326808335B01D31818790143197190
:103720000121D971019BD318FF339A7A0A439A7207
:10373000BFE701246442BCE7CC0B00202007002037
:10374000D40B00200809002013B56B46DC1D2200B5
:103750000123FFF799FF012801D1207816BD012030
:103760004042FBE770B5CBB2124A13485C018901B5
:103770008918021951609168104D08330D4080215D
:1037800049032943402591609168890B8903916021
:1037900001685A018A1816793543157195796D06B5
:1037A000FCD55B01C918CB79DB07FCD50019806813
:1037B000C0B270BD08090020D40B0020FF3F00F00C
:1037C00070B50D0000211400FFF7CCFFA04200D916
:1037D000200000230349A34203D0CA5CEA5401330A
:1037E000F9E770BD08090020F0B51E003A4B85B01E
:1037F0001B680F000192002B35D08023DB019E4215
:1038000031D80025354B8A01D3180293002E2CD0D5
:10381000334B1B680393FF233B401C000093083489
:10382000039B64011C19A379DB0921D02D4B2E4980
:10383000186801F005FC2D4B1721584301F000FCDE
:103840002B4BE279920713D4DA5D002A01D10138BB
:10385000F7D20122DA55009B5A01214B9B189A6935
:10386000920B92039A6101256D42280005B0F0BDCC
:1038700000221F4B3400DA553F2E09D9009B40240B
:103880005A01174B9B188022996912060A439A61C4
:1038900022000199029803F0C7FB009BA1045A0182
:1038A0000F4B890C9B18029A2D195A619A69361B85
:1038B000920B92030A439A61009B039A08335B01BF
:1038C000D3180222DA715979823A0A435A71019B5C
:1038D0001B1901939AE7C046CC0B00204807002033
:1038E000D40B00201400002040420F007011010092
:1038F0003D07002070B50D001C000D4BAE01F61801
:1039000011003000220003F08FFBEDB209496D0178
:103910004D196E61AB69084A20001340AB61AB6979
:10392000A2049B0B920C9B031343AB6170BDC0467A
:1039300048070020D40B0020FF3F00F0F7B5104BE4
:1039400001901B780F001500002B0CD10D4B1600B9
:103950001C78002C09D00C4E0C48348820186419AF
:1039600003F062FB34802800FEBD002EFBD03A1924
:10397000330000210198FFF7BDFF2418361AF4E741
:10398000C80A0020C90B0020CA0B0020C90A002069
:10399000F8B50F0016000024012A26D9100003F004
:1039A0002FFB0500380003F00BFC0323022201303B
:1039B000400028706B7096420DD9397800290AD0E2
:1039C000531CDBB20137A9549E4203D00232EC549F
:1039D000D2B2F0E7320029000548FFF7AFFF441EDE
:1039E000A041C4B2280003F015FB2000F8BDC0467A
:1039F0001C070020F0B50024012685B0184B0F00ED
:103A000069461E7005000094FFF745FC154B01A99F
:103A10000B806A3BFF3BCB715A330B72009B8C715E
:103A200009334B800E4B4E7108711C703A00092F00
:103A30000FD00D4F09223E700C4E280000943480A8
:103A4000FFF77CFF69462800FFF725FC328808490C
:103A50003C702800FFF772FF012005B0F0BDC046A2
:103A6000C80A002009020000C90B0020CA0B002070
:103A7000C90A002070B5CE7892B005000C00022E65
:103A80000BD18B79C9792E4809021943FFF7B2FF90
:103A9000411E8841C0B212B070BDFFF785F9210008
:103AA000FFF716F9002803D0C117081AC00FF2E774
:103AB000012E0ED1E279A37912021A432149112A6B
:103AC0003CD8D2B2002A39D02800FFF737FF0120B6
:103AD000E1E7032EDFD1A378002B28D0022B08D1F9
:103AE000E279A379120218491A432800FFF750FF20
:103AF000D1E7012B05D1E279A37912021A431349C8
:103B0000F3E7032BC7D10100412201A803F095FA86
:103B1000FFF74AF901A9FFF7EBF8002805D0E27991
:103B2000A37912021A4301A9DFE70378FFDEE279E5
:103B3000A37912021A430649032AC2D90A78C3E7B5
:103B40001C070020CA760000A4760000BE760000A4
:103B5000BA760000CBB204495B01C9188B699B0B94
:103B60009B038B617047C046D40B002037B505001E
:103B700048780C000B2810D801F058FA061B0F2BC0
:103B80000F404561494C5A5D097801AA002906D1C8
:103B9000022311802800FFF7ADFE01203EBD002367
:103BA0001380284B1B78012B00D1137002230021B6
:103BB000F0E78A780023012A03D101AA1380224B5F
:103BC000F0E7204A1370214A93699B0B9B03936192
:103BD000E3E78C78012C06D100211B4B01AA1C7055
:103BE00011702300D6E70120002CD7D1154B174ABE
:103BF000187093699B0B9B039361CFE7897828002A
:103C0000FFF722FCC9E72800FFF734FFC6E70123CE
:103C10000F4ACCE70B780020DB06BFD12800FFF766
:103C2000D9FCA2780A4B0B481A60FFF705F8CAE7DF
:103C30000123094ABBE78A78074B1A60C3E70020D3
:103C4000ACE7C0463C07002044070020D40B00200E
:103C5000CC0B0020B4060020D00B00203B4BF7B566
:103C60001E780500002E5FD1394C23689A8B12070D
:103C70000DD5082231009A833000FFF7AFF81022EB
:103C80002368FF33997A0A439A72324B1E60236885
:103C90009A8B520701D504229A83FF331A7A92062F
:103CA00003D52022597A0A435A721A7AD20623D5AA
:103CB00069460800284AC0CAC0C0A268920B920395
:103CC000A2604022587902435A7160230A78280082
:103CD0001A422AD1FFF74AFF2368FF33002827D072
:103CE0008022997952420A439A711A7A520603D570
:103CF0004022597A0A435A727F2601252368FF33EE
:103D00001E722F00236808377F01DB19DB79002B37
:103D100007D0124BAA00D05800280DD003681B68AA
:103D200098470135082DECD1F7BDFFF7B1FBD3E77C
:103D300020210B4A9171D8E7FFF736F82900FEF7EA
:103D4000FAFF2368DF19FE71EBE7C046C90B0020BC
:103D5000D40B0020CC0B00200809002020070020F5
:103D6000FF50004110B50248FFF778FF10BDC04674
:103D70001C070020014B024A1A607047D40B002038
:103D800000500041F7B506000D000C008B180193A0
:103D9000019B671B9C4207D0336821781B68300069
:103DA000984701340028F3D13800FEBD70B50400F7
:103DB00008000D0003F004FA2368020029005B6884
:103DC0002000984770BD10B50B1E02D0FFF7EEFF24
:103DD0000300180010BD10B5FFF7F5FF10BD10B5BA
:103DE00003681B68984710BD10B50249FFF7DEFF56
:103DF00010BDC046E876000070B50400FFF7E3FF91
:103E000005002000FFF7F0FF401970BDF0B58BB042
:103E10006B461500002205330600DA770800012DF5
:103E200000D80A2509AC290001F090F9CAB21300A4
:103E300037330700DBB2092902D813003033DBB275
:103E4000013C2370002FEED121003000FFF7BBFFB3
:103E50000BB0F0BDF8B506000C00151E04D10368C8
:103E6000C9B21B689847F8BD0A2A0CD100290BDAA1
:103E70002D21FFF7B4FF614207002A003000FFF751
:103E8000C5FF3818EFE7D2B221003000FFF7BEFFC0
:103E9000E9E770B50400FFF7DDFF05002000FFF73C
:103EA000A3FF401970BD0000F7B51E0008AB1B78DA
:103EB00031000193050033001000170002F088FF65
:103EC0004B49002814D10122740064085242494B26
:103ED0003800210002F07CFF00280FD10122454B61
:103EE00052423800210001F057F9002806D142491A
:103EF0002800FFF75BFF04002000FEBDE0223F4BDF
:103F000012063800310001F051F9002801D03C4977
:103F1000EEE7E0223B4B12063800310001F032F9A7
:103F20000028F4D1002200233800310001F02AF9E2
:103F3000041E07D02D212800FFF751FF8023040025
:103F40001B06F618002300202F490093019B009ABE
:103F5000934208D02D4B002201F076FD009B0133E7
:103F6000DBB20093F2E733003A0001F051FA0F00A0
:103F7000060001F069F90A22019001002800FFF70C
:103F800045FF009B0419002BB6D0019802F072FF88
:103F900002000B003000390002F0D2FB06000F00D7
:103FA00028002E21FFF71BFF2418009B013BDBB2EA
:103FB0000093FF2BA0D0154B00223000390002F0F7
:103FC0004DF90F00060001F03FF90A2201000190AF
:103FD0002800FFF71BFF2418019802F04BFF020096
:103FE0000B003000390002F0ABFB06000F00DCE7ED
:103FF000DC760000FFFFEF7FE0760000FFFFEF417F
:10400000E4760000FFFFEFC10000E03F0000244025
:1040100037B519000400069B2000DBB200930B00AB
:10402000FFF742FF05002000FFF7DEFE40193EBD0E
:1040300010B50400FEF7D7FD014B1C6010BDC04653
:10404000100000200122024B52421A607047C04605
:1040500010000020164A10B51368591C26D0013BE9
:104060001360002B22D172B6124B134A04339342D1
:1040700013D9124A01211000147D0C42FCD02021DA
:10408000148BFF319B085B0021431183D3610C4BE0
:1040900013800123027D1A42FCD0BFF34F8F094BDE
:1040A000094ADA60BFF34F8FC046FDE710BDC04636
:1040B000100000200020000003020000004000412A
:1040C00002A5FFFF00ED00E00400FA050160704763
:1040D0009446F0B59E1E721E964162460568920790
:1040E0002F6836063A4332432A60072505AC247808
:1040F0000068A4012940214342680024022B00D01B
:104100005C03114321434160F0BD30B5C025036815
:10411000AD031C6812052A402243C0240904A402EE
:1041200021401143196003685A6814435C6030BD34
:104130000123026811680B43136003681A68D207F1
:10414000FCD4DA69D207F9D47047022302681168F7
:104150000B4313600268D3699B07FCD47047036864
:104160001A7ED20702D41A7E9207FCD5704700222D
:1041700003685A8370470368187E4007C00F704772
:104180000368187EC0097047802302685B42117E75
:104190000B43137670470368588B8007C00F704736
:1041A00002230268518B0B43538370470368187EC8
:1041B000C007C00F70470368188DC0B2704703680E
:1041C0001A7ED207FCD589B20120198570470122D9
:1041D00003689A757047012203681A7570470123B6
:1041E000026811680B43136003681A68D207FCD495
:1041F000DA69D207F9D470470223026811680B43C9
:1042000013600368DA699207FCD430215A8B8A4321
:10421000110010220A435A830268D3695B07FCD459
:1042200070470221026813688B4313600268D369E8
:104230009B07FCD470470000032230B5036811408F
:104240001C68074D5A6809042A40E4061143640FAC
:104250005960052C03D10268D3695B07FCD430BDDB
:10426000FFFFFCFF70B5056804006B8B9B069B0F7E
:10427000022B0DD06B8B00209B069B0F032B32D0A3
:104280006B8B9B0704D56B8B9B069B0F012B2AD155
:104290006B6A49001143DB0AC9B2DB020B436B6254
:1042A0002368002A13D11A7ED207FCD55B8B9B06AC
:1042B0009B0F022B04D0490800222000FFF7D2FFF9
:1042C0002368588B4007C30F012058400BE0187E2D
:1042D0008007C00FF4D11A7ED207F8D5C0225968E2
:1042E00092020A435A6070BD03682833197003684C
:1042F000187EC007C00F03D15A8BD207F8D570477C
:10430000588B4007C30F01205840F8E70368214A43
:1043100030B593422FD0204A93422FD01F4A934268
:104320002FD01F4A93422FD01E4A93422FD01E4AAD
:1043300093421FD10E2319220121032599401B48C6
:10434000C024016099082B40AB40FC359D4089009A
:104350000918A4000859A843C0259D402B00034319
:104360000B518023DB011A43114B5A805A7852B209
:10437000002AFBDB30BD09231422DDE70A231522C6
:10438000DAE70B231622D7E70C231722D4E70D23F5
:104390001822D1E700080042000C00420010004241
:1043A0000014004200180042001C004200E100E03E
:1043B000000C0040F8B504000F0016001D00FFF7C8
:1043C000A5FF2000FFF7B4FE1C21BB000B407107C6
:1043D0002268090C0B431360842322689375012F14
:1043E0001AD11021012E00D008390C4B69431868EE
:1043F000C00000F025FE0722216802408B8952038D
:10440000DB04DB0C13438B81226803049089DB0CF3
:10441000400B400318439081F8BDC04614000020B3
:10442000F8B504000F00FFF771FF2000FFF7D7FE7B
:104430001422236879001A600C4B25681E6830002E
:1044400000F0FEFD0A490400300000F0F9FD7D2374
:10445000FA215843C90000F0F3FDFF23241AE8684D
:10446000053C1C4098430443EC60F8BD1400002058
:1044700040420F000120704710B50368014A1B6AD3
:10448000984710BD130400000300FC33D9699A69F2
:10449000914203D0DB69C018007D70470120404283
:1044A000FBE710B504000069FFF742FE220000237D
:1044B000FC329361D36186229200A4186360A360EA
:1044C00010BDF02001403039484248417047F02388
:1044D0001B011940802306209B0099420AD001331A
:1044E000FF330130994205D0802302385B009942A6
:1044F00000D0002070470F2001400020012903D088
:104500000239481E8141481C704700008923F0B5DC
:10451000182685B002919B000400C05C330008217E
:104520004343324D1700EB18595600F01FFD304B36
:104530000821E05C33004343EB18595600F016FDA8
:104540002C4BE25C0393022A09D11133E05CFF2873
:1045500005D008214643AE19715600F007FD8A26A2
:10456000B600A05DFF2819D0012100F087FC1822B9
:10457000A35D21495A43AB56AD18DB0158188B2176
:10458000890060501D4901225B188C21890063500D
:1045900069688A408D21890062501A600122029B5D
:1045A00011002069FFF706FF39002000FFF78FFF99
:1045B000390005002000FFF79EFF390006002000AB
:1045C000FFF77FFF33000090290020690122FFF7E9
:1045D0007FFD0B4B2069E25C039BE15CFFF795FDDF
:1045E0002069FFF7B2FD05B0F0BDC046C8720000FB
:1045F0002502000027020000184400411444004135
:1046000026020000802210B504005200002102F0B2
:1046100014FD23000022FC335A6020009A6010BD74
:10462000F0B585B01D000AAB1B78040000930BABFE
:104630001B78160001930CAB1B780F0002930DAB97
:104640001B78039300234360FA239B008360124B83
:10465000083303601430FFF7D5FF20001D30FF3012
:10466000FFF7D0FF89236A469B002761E6540B4B76
:104670001278E5540A4B2000E2546A46094B12793D
:10468000E2546A46127A0133E2546A46127B1033CE
:10469000E25405B0F0BDC046EC76000025020000F3
:1046A0002602000027020000F7B51D0008AB1B78AA
:1046B0000400009309AB1B781600019300234360AC
:1046C000FA239B008360114B0F0008330360143002
:1046D000FFF798FF20001D30FF30FFF793FF89237D
:1046E0006A469B002761E654094B1278E554094B52
:1046F0002000E2546A46084B1279E2548A22293B90
:10470000FF3B9200A3541032A354FEBDEC76000090
:104710002502000026020000270200000300FC33EF
:1047200058689B68C01A01D50130FF30704710B53A
:10473000040020001D30FF30FFF7F0FF0028F8D103
:104740002069FFF70CFD10BD10B51430FFF7E6FF30
:1047500010BD0300FC3359689A68914204DB5A6823
:104760009868801AFF30704798685B68C01A0138F3
:10477000F9E710B51D30FF30FFF7EBFF10BD10B5A6
:1047800004000069FFF707FD002805D02069FFF746
:1047900012FD2069FFF704FD2069FFF7ECFC0028FB
:1047A00020D02069FFF707FD2200FC329369D16910
:1047B0000133DBB28B4203D09169611808759361B4
:1047C0008A239B00E35CFF2B0CD020001430FFF702
:1047D000C0FF092806DC8B238D229B009200E35842
:1047E000A2581A602069FFF7E1FC00281AD02000C7
:1047F0001D30FF30FFF792FF002822D086239B0058
:10480000E31899685A68914218D08E219A68490035
:10481000A218515C9A680132D2B29A60C9B220697A
:10482000FFF7CDFC2069FFF7ABFC002805D020691D
:10483000FFF7AAFC2069FFF79AFC10BD012149424D
:10484000ECE72069FFF7C7FCECE7000070B5040057
:1048500000690D00FFF7AAFC00283ED1FF26862341
:104860009B00E3185A689968013232408A4223D18A
:10487000EFF31083DB0710D41E4B5B68DB05DB0D09
:10488000EDD0103B5BB2002B10DA0F221340083B37
:104890009B08194A9B009B181B682069FFF786FC40
:1048A0000028DCD02000FFF76AFFD8E79B08C03360
:1048B000124A9B009B58F0E75A68013216409A68EA
:1048C000964205D08E215A684900A21855545E6060
:1048D0002069FFF77CFC012070BD20001D30FF30F7
:1048E000FFF71CFF0028B9D129002069FFF767FCFA
:1048F000F1E7C04600ED00E01CED00E000E100E063
:10490000030070B5FC33D9699A69040091421AD04A
:10491000DA698218157DDA690132D2B2DA618A2346
:104920009B00E35CFF2B0CD020001430FFF711FF3D
:104930000A2806DD8C238D229B009200E358A258A2
:104940001A60280070BD01256D42E8E7FEE700000F
:10495000034B10B51B68002B00D0984710BDC04614
:10496000D80C002070B50F490F4CA14204D100F0C3
:10497000B5F800F08BF8FEE70C4D00238D42F6D021
:10498000CA18E818A24205D3094B8242EFD0094960
:10499000002204E0006804331060F1E704C38B4296
:1049A000FCD3E4E700000020A0000020A477000072
:1049B000A0000020F00C002010B500F064F80028E2
:1049C00001D100F055F810BD014B18607047C0468A
:1049D000D80C0020014B18687047C046DC0C002042
:1049E000F7B51348012284461249134C8E68636858
:1049F00005689B0E1340019288686268019F920EC1
:104A00003A4067463F6893420ED1BD420CD1864280
:104A10000AD35B19FA254868AD00861B07486B432B
:104A20007043000DC018FEBD3D0013000600E3E713
:104A3000DC0C002010E000E000ED00E05555000027
:104A400070B5041E10D0FFF7CBFF050000F01AF878
:104A5000FFF7C6FF054B401B9842F7D9FA23013CEC
:104A60009B00ED18002CF3D170BDC046E703000099
:104A700010B5034A136801331360FFF7EBFA10BD5A
:104A8000DC0C0020704700207047000010B500F0DB
:104A9000D5F802F091FAFDF73BFE0120FFF7D0FFB9
:104AA000084C2000FEF708FC2000FEF7B3FCFDF7E1
:104AB00015FEFDF729FE044B002BFAD000E000BFE5
:104AC000F7E7C0461C0700200000000010B502F008
:104AD00097FA10BD10B502F09DFA10BD1E2270B5F8
:104AE00046484749436893431C3A134343600823AD
:104AF0008C6923438B61434C434B9C829C8A1443B7
:104B00009C82DC681442FCD00124404A1470157861
:104B1000254203D055786DB2002DF8DB0124946056
:104B2000547864B2002CFBDB394C5460547864B286
:104B3000002CFBDB8224E4015480547864B2002C06
:104B4000FBDB02249C840E34DD682542FCD0314C12
:104B5000DC621024DD682542FCD09D8C2E4C2C4359
:104B60009C841024DD682542FCD002249D8C802684
:104B70002C439C844024DD683542FCD0DD6825420E
:104B8000F9D01024DD682542FCD0002494605478CC
:104B900064B2002CFBDB214C5460547864B2002CCE
:104BA000FBDB1C6A1E4D2C4080251C621C6AAC433A
:104BB0001C62032393601B4B536053785BB2002B42
:104BC000FBDB0023FF240B72174A4B728B72CB72F4
:104BD000164B1A60164B174A1B6811689A065B0140
:104BE000C90E2340520F12020B431343124A13857E
:104BF000802342681343436070BDC04600400041BB
:104C0000000400400C06000000080040000C0040BA
:104C100001050100B905FF7D040A0000000703003B
:104C2000FFFCFFFF03060100006CDC021400002003
:104C3000246080002060800000400042FA21314B57
:104C400010B51868890000F0FBF92F4B0138984225
:104C500056D82E492E4A4860C020136A00061B020F
:104C60001B0A03431362002407238C600B6080211E
:104C7000136A09061B021B0A0B431362FC22254B15
:104C8000196A0A431A62FC22196A92010A431A62DB
:104C9000A022196AD2020A431A62200000210134BC
:104CA00000F0ECF80F2CF8D11B4B1C005A7852B2D4
:104CB000002AFBDB194A5A80194B1A00597EC90990
:104CC0000129FBD0E421C90099803F21D970537E8E
:104CD000DB09012BFBD0C02300205B011361907026
:104CE00000F02EF863785BB2002BFBDB0D4B0E4A15
:104CF0006380D379DB09012BFBD04123537010BDB6
:104D0000FEE7C04614000020FFFFFF0010E000E0B7
:104D100000ED00E000040040000C00401E400000D8
:104D2000004000422140000000480042914202D071
:104D300002D98A1AD0407047521A9040FBE700000F
:104D4000164A00B51300517EC9090129FBD001386C
:104D5000042816D81969124A0A400F211A615A7894
:104D60008A4300F063F90308060B030011000122D7
:104D70000A435A7000BD11000322F9E71100022214
:104D8000F6E7F02311691B050B430F2113615378DC
:104D90008B43190002230B435370EBE700400042A2
:104DA000FFFFFFF010B504000E2800D80F340121DA
:104DB000200000F0DBF81823102163432A4CE4188C
:104DC0006156002901D014290DD1284B1800DA7939
:104DD000D209012AFBD002241A78A2431A70C3799F
:104DE000DB09012BFBD022480300427ED209012AB5
:104DF000FBD01F2402692140A2430A4302615A7E6C
:104E0000D209012AFBD0022219780A431A705A7E6D
:104E1000D209012AFBD00222197B0A431A731A7E97
:104E2000D207FCD501221A765A7ED209012AFBD07C
:104E30000222197B0A431A731A7ED207FCD5588BBB
:104E400080B25A7ED209012AFBD002211A788A4305
:104E50001A705A7ED209012AFBD0064B1A68064BFB
:104E60001968FFF763FF10BDC872000000480042D8
:104E7000004000421C00002018000020182330B51C
:104E80001D00040045430820204A551928560130CA
:104E900014D0032912D808006343D156D31800F068
:104EA000C5F802280E1B5868CB010221184A9B182E
:104EB0001A1840321170012282405A6030BD586881
:104EC000CB010621124A9B181A1840321170012298
:104ED00082405A609A61F1E75868CB0106210C4A7A
:104EE0009B181A1840321170012282405A605A6190
:104EF000E4E75868CB010221054A9B181A18403292
:104F00001170012282409A60D8E7C046C872000042
:104F1000004400411823F0B508245843114A1318DF
:104F20001C5701341BD0012635005F688356BD40F5
:104F30000D4ADB019A18906805420BD10C00601EE7
:104F40008441D2194032107834400336A400B04373
:104F500020431070044A9B18002901D15D61F0BD07
:104F60009D61FCE7C87200000044004118224243E2
:104F7000F8B52C4E0300B218127A52B21400013266
:104F80000ED0481C00240C280AD800F04FF8071F48
:104F90001F1F1F1F1F1F1F0B0B0B0B000124644241
:104FA0002000F8BD092905D100211800FFF766FF90
:104FB0000024F5E70A2901D10839F6E700240B2976
:104FC000EED10A391800FFF759FFE9E718225343D9
:104FD000F218556801202C00F356134ADB016E08C5
:104FE0009B18C9B204409E19002C0DD00F243036F6
:104FF0003278090122401143C9B25B193170403344
:105000001A7810431870D3E732000F273032167821
:105010005B19BE433143117040331A781043187046
:10502000BEE7C046C87200000044004102B47146A9
:1050300049084900095C49008E4402BC7047C046DB
:10504000002243088B4274D303098B425FD3030AC7
:105050008B4244D3030B8B4228D3030C8B420DD3DA
:10506000FF22090212BA030C8B4202D31212090268
:1050700065D0030B8B4219D300E0090AC30B8B42A6
:1050800001D3CB03C01A5241830B8B4201D38B0354
:10509000C01A5241430B8B4201D34B03C01A5241F9
:1050A000030B8B4201D30B03C01A5241C30A8B423C
:1050B00001D3CB02C01A5241830A8B4201D38B0227
:1050C000C01A5241430A8B4201D34B02C01A5241CB
:1050D000030A8B4201D30B02C01A5241CDD2C3093D
:1050E0008B4201D3CB01C01A524183098B4201D3B9
:1050F0008B01C01A524143098B4201D34B01C01AA4
:10510000524103098B4201D30B01C01A5241C3081B
:105110008B4201D3CB00C01A524183088B4201D38A
:105120008B00C01A524143088B4201D34B00C01A76
:105130005241411A00D20146524110467047FFE7E2
:1051400001B5002000F006F802BDC0460029F7D0E6
:1051500076E770477047C0468446101C62468C460E
:10516000191C634600E0C0461FB501F00FF8002887
:1051700001D40021C8421FBD10B500F067FF4042B6
:10518000013010BD10B501F001F8002801DB00204E
:1051900010BD012010BDC04610B500F0F7FF00287B
:1051A00001DD002010BD012010BDC04610B500F08B
:1051B00089FF002801DC002010BD012010BDC04681
:1051C00010B500F07FFF002801DA002010BD01209B
:1051D00010BDC0468446081C6146FFE71FB500F0BD
:1051E000C7F8002801D40021C8421FBD10B500F047
:1051F00049F84042013010BD10B500F0B9F8002860
:1052000001DB002010BD012010BDC04610B500F02C
:10521000AFF8002801DD002010BD012010BDC04600
:1052200010B500F057F8002801DC002010BD012067
:1052300010BDC04610B500F04DF8002801DA00207E
:1052400010BD012010BDC04670B500220C4B0400FB
:105250000D00FFF7B5FF002804D12000290001F060
:10526000D3FD70BD064B00222000290001F068FA32
:1052700001F0CAFD80231B069C466044F1E7C0464E
:105280000000E04170B542004E024C0045026D0A3C
:10529000120EC30F760A240EC90FFF2A0FD0FF2C5F
:1052A00011D00120A24200D070BDB542FCD18B428A
:1052B0000DD0002AF8D12800451EA841F4E70120AE
:1052C000002DF1D1EBE70120002EEDD1E9E7002020
:1052D000EAE7C04670B54A004E02450244006D0A36
:1052E000240EC30F760A120EC90FFF2C15D0FF2A09
:1052F0000ED0002C15D1002A01D1002E1CD0002D7B
:1053000014D08B4227D00220013B1840013870BDD9
:10531000002EEED002204042F9E7002DFAD1FF2AFC
:105320000ED0002A0ED1002EEDD00BE00123013962
:10533000994308000130EAE70020002DE7D0E2E7BA
:10534000002EE7D18B42DED1944205DD0221581EAA
:1053500008400138DBE70024A24204DCB542D2D881
:105360000020B542D3D2581E012398430130CEE726
:1053700030B5420044024D02C30F4800640A120EC9
:105380006D0A000EC90FFF2A12D0FF280CD0002A88
:1053900012D1002819D1002D17D1002C2BD00220BA
:1053A000013B1840013826E0002DF0D0022022E019
:1053B000002CFBD1FF281FD000281FD1002D1DD1AC
:1053C0000220013B1840013815E0002C0ED08B4222
:1053D000E5D10022904204DCAC42E0D80020AC428F
:1053E00009D2581E01239843013004E001230139FA
:1053F00099430800013030BD002DD7D18B42CED16A
:105400008242E7DD0221581E08400138F3E7C0461A
:10541000F0B54F464646D6460C000903C0B5490ACA
:10542000470F5E0039431F03DB0F9C4665007B0A74
:10543000570F1F436D0DE40F760DA146C000B8460F
:10544000D200AB1B64457BD0002B5FDD002E00D06B
:10545000A4E03E00164300D112E15E1E002E00D0F3
:105460009EE1871A4346B84280410125C91A40424D
:10547000091A0B0200D431E149024E0A002E00D174
:105480006EE1300001F07AFD0300083B1F2B00DDC8
:1054900061E120223900D21A9E40D1409F400E4344
:1054A0009D4200DD51E15D1B6B1C1F2B00DD7CE18B
:1054B0002021C91A3D0030008F408840DD40791E10
:1054C0008F41310007222843D940002507433A4045
:1054D000002A09D00F233B40042B05D03B1DBB42C3
:1054E000BF417F42C9191F000B0200D426E26A1C8B
:1054F000C64B55056D0D9A4200D106E1C44AFF081E
:105500000A40530752023B43120B8EE0002B00D09F
:10551000B8E06B1C5B055B0D012B00DC30E1871AEA
:105520004346B842B641CB1A76429E1B330200D5A1
:105530004CE13B003343A1D100220024002570E060
:10554000002B00DCE5E0002E00D183E0AF4EB54239
:1055500060D0802636043743B846382B00DC3EE165
:10556000434613431F007A1E97413F1887428041EC
:10557000404209180B0200D4B0E0A44B01359D4213
:1055800000D1C3E0A24A7B080A4001210F401F431B
:105590005108D30707221F433A4099E79B4EB54273
:1055A00038D0802636043743B846382B00DDDCE09F
:1055B0001F2B00DC30E11E004746203EF740BC4672
:1055C000202B04D04026F31A46469E403243170053
:1055D00063467A1E97411F43CCE0002B00D104E2C2
:1055E0004346134300D159E14B07C00818438023B9
:1055F000C9081B03194208D04546ED081D4204D1D5
:105600004346D008590708432900420FC9007F4D7F
:105610001143C0004B07CA087C49C00803438D42B0
:1056200068D012036D05120B6D0D002112031800D6
:10563000130B0A0D12051A43764B2D0513402B430D
:105640005B00E4075B08234319001CBC90469946A5
:10565000A246F0BD3E00164312D05E1E002E00D0C2
:1056600000E18718874280414144404209180125E2
:105670000B0233D5022585E764463300414610000E
:105680001D00C7E7002D00D0DAE00C000443F3D082
:105690005C1C00D19FE15D4CA64200D12FE1DB43B1
:1056A000382B00DD66E11F2B00DD83E1202405009F
:1056B000E41A0F00DD40D940A0404346A7405B1AE2
:1056C000441EA04198462F433843171ABA429241CC
:1056D00043465242991A64463500CAE607223A40C8
:1056E000002A00D0F6E64B07CA084849FF083B43AA
:1056F0008D4296D11900114300D19EE1802109030A
:105700000A431203120B414D8FE7150000220023BC
:105710008BE7002B00D0C7E06B1C5F057F0D012FCE
:1057200000DCF1E0394DAB4200D1B9E085180A0048
:10573000854289414244494251180722CF076D08EA
:105740002F4349083A401D00C2E607223049ED1AAE
:1057500031403A40BCE63E002838864000279FE6AC
:10576000380001F00BFC20308EE6434613431F0047
:105770007A1E9741C71BB84280414042091A78E619
:105780000E003B0006431343002D61D1002E00D0D4
:10579000F4E0002B00D11BE164463900100039E72A
:1057A0001A4FBB427AD03300FFE630001F3DE8407D
:1057B000202B03D04021CB1A9E4037437B1E9F41B4
:1057C000072207433A400021002589E7171A43467C
:1057D000BA42B641591A76428E1B64464EE61F2BDA
:1057E00000DDADE020264746F61AB740B94617005F
:1057F000B246DF404E463E4337005646B240561E44
:10580000B24117434246DA408918AEE6FF0700006E
:10581000FFFF7FFFFFFF0F8020264746F61AB740A5
:10582000B9461700B246DF404E463E433700564663
:10583000B240561EB24117434246DA40891A99E7F0
:105840007F4CA6425BD0802424045B42214327E79F
:10585000002E0CD1002B00D1CBE0644639001000A3
:10586000774DD7E6764FBB4218D0330075E6002B54
:1058700014D04B07C00818438023C9081B031942E2
:1058800007D0FC081C4204D17907D0080843E14640
:1058900021004C46420FC9001143C000684DB9E6D3
:1058A0001D0000220023C0E6002D5BD10D00054342
:1058B00000D1E2E65D1C00D1B0E0614DAE421FD0E8
:1058C000DB43382B71DC1F2B00DD96E020250F0019
:1058D000ED1AAF40B9460700AA46DF404D463D43AA
:1058E0002F005546A840D940451EA841884407438B
:1058F000BF18974292415142414435003AE664460E
:1059000035004146100085E60B000343002D00D012
:1059100063E6002BF5D04346134300D17AE687189F
:105920008742804107224144404209183A400B0215
:1059300000D4D5E6434B01351940C9E5380069E686
:105940001E004746203EF740BC46202B04D0402690
:10595000F31A46469E403243170063467A1E97412B
:105960001F4302E6364DAE42CAD080252D045B426D
:105970002943A6E70843411E8841A6E6002B00D133
:1059800048E6871A4346B842B641CB1A76429E1B78
:1059900033024BD5171A4346BA429241591A524222
:1059A000891A072264463A4092E501430F00791EA6
:1059B0008F419DE71C000F00203CE740202B03D0C7
:1059C0004024E31A99400843411E884138437CE64D
:1059D0000022002425E6171A4346BA429241591A7A
:1059E0005242891A6446350043E541461000144D81
:1059F00010E680220024120380E61D000F00203DE7
:105A0000EF40BC46202B03D04025EB1A99400843B9
:105A100007006346781E87411F4369E7871897424E
:105A20009B4141445B42C9183500A3E53B00334329
:105A3000CED0072231003A4052E600231A00F4E5A6
:105A4000FF070000FFFF7FFFF0B55746DE464E46DA
:105A50004546E0B5834607000E03480085B09246F0
:105A60001C00360B400DCD0F002800D19DE0954B5A
:105A7000984239D08023F6001B041E43924A7B0FC4
:105A80003343994694460300634400930023002661
:105A9000FF00029323031B0B98466300E40F52465A
:105AA0005B0D019400D1B3E086498B4200D19EE0AA
:105AB0004246D100802212040A435146490F114345
:105AC0008B46814952468C4600996344CB1A00218B
:105AD000D20000932B0063409A460F2E00D905E1B7
:105AE0007A4BB6009B599F465B463343994600D09C
:105AF000B8E002230826002700900293CAE7CB46AD
:105B00003A0002990195019B9A46022927D0032960
:105B100000D180E2012944D06D49009B8C4663444A
:105B20001C00002C38DD530700D013E2D2085B467E
:105B3000DB0109D55946674B19408B468021C900C6
:105B40008C46009B63441C00634B9C4207DC5B4615
:105B500064055F075B0217431B0B620D02E0002325
:105B60000027584A00211B031C0B0B0D1B05234368
:105B700014055A4A380013401C4353466400DB079F
:105B800064081C43210005B03CBC90469946A246DF
:105B9000AB46F0BD0122524201231B1B382B00DC17
:105BA000ADE1002200230027DCE75B463343994642
:105BB0005ED0002E00D18AE1300001F0DFF9030051
:105BC0000B3B1C2B00DD7BE11D22D31A5A46010042
:105BD000DA4008398E4013005F46334399468F40C0
:105BE0003F4B00261B1A00930023029352E74146C5
:105BF00053460B433B499B468C46009B63440093B2
:105C00005B46002B3BD1022300221E43022161E7A9
:105C1000434613439B4637D04346002B00D162E1F5
:105C2000404601F0ABF903000B3B1C2B00DD53E1B8
:105C300002004146083A914088461D21CB1A514640
:105C4000D9400B0041460B439B46534693401A00F4
:105C5000009B25499C46604403008C4663440093A6
:105C6000002137E70323B14600900C26029311E789
:105C70000023009301330426002702930AE703233D
:105C8000C3461E43032125E701331E4300220121A1
:105C900020E700239A46802300271B03094A61E777
:105CA000802349461B03194200D1E2E059461942BC
:105CB00000D0DEE00B431B0317001B0BA246014A7A
:105CC00050E7C046FF07000001FCFFFF20770000FF
:105CD000FF030000FFFFFFFEFE070000FFFF0F8035
:105CE0000DFCFFFF01F8FFFFF3030000D94500D9C9
:105CF000CBE000D1C6E03C0048460027009B013BBA
:105D000000935B46160E1B021E4313029846330493
:105D10001B0C9946310C0191FFF718FA4A46424391
:105D20000B04210C050019438A4207D98919013D4A
:105D30008E4203D88A4201D9851E8919881A019991
:105D4000FFF704FA09048C464A462104644642439C
:105D5000090C030021438A4204D98919013B8E4270
:105D600000D8F1E02D041D43AB464346891A424654
:105D7000280C12041D0C5B46140C22001B041B0C87
:105D80005A4303946B434443029568431B19150C13
:105D9000EB189C4203D980246402A44660441C0C86
:105DA00015041B042D0C20185D19814277D373D084
:105DB0000C1AA24A7D1BAF42BF419446009B7F4212
:105DC0006344E01B1C00864200D1DBE00199FFF731
:105DD000BDF94A4642430B04290C070019438A4285
:105DE00007D98919013F8E4203D88A4201D9871EFB
:105DF0008919881A0199FFF7A9F909044A468946C1
:105E000029044D464243090C030029438A4207D91D
:105E10008919013B8E4203D88A4201D9831E891910
:105E20003F04891A3A00039F1A43380013041B0CDD
:105E3000584381460298150C6F43434345434846F7
:105E4000000C8446DB1963449F4203D98020400242
:105E50008446654448461F0C00041B04000C7D1951
:105E60001818A94200D284E000D17FE001231A4330
:105E700057E680234A461B0313431B031B0BAA460A
:105E80006F4A6FE6BA4200D935E74B46DC0758083F
:105E90007B081C43FF0734E70024AF4289D2474404
:105EA0004745A4415B466442A4196418013BA642DD
:105EB0001ED2A0426DD800D1B6E0241A9B4678E7E6
:105EC00003005A46283B9A400027914688E65846E8
:105ED00001F054F8203072E603005246283B9A4005
:105EE00093460022B4E6504601F048F820309AE686
:105EF000A642E2D1B845DCD9341A9B4659E71F2B9C
:105F000065DC504C0099A4465C46614408008C4016
:105F100011008240D940501E82410C4314435A461E
:105F2000DA401300620709D00F222240042A05D06C
:105F30002200141D9442894149425B181A0262D51D
:105F40000122002300270DE68A4200D80AE7831EBB
:105F5000891907E70F231340042B00D1E6E5171D2D
:105F60009742924153429B44FA08E0E5002800D151
:105F7000D7E57118531EB14227D3A94215D358D083
:105F80001A0073E7002B00DC04E6012300229B4487
:105F9000CDE502234744474589415B429C4649423F
:105FA00089190C19E344241A03E743465F00474567
:105FB0009B41B8465B429E19023A8919A94200D01A
:105FC00054E7404500D051E7ABE51A00F6E71F2142
:105FD0005F4649420C1BE740202B07D01A49009B23
:105FE0008C46634418005B4683401A43501E82412E
:105FF0003A4307270023174009D00F2100231140FF
:106000001400042995D122005F075B021B0BD20804
:1060100017430022A6E5802359461B030B431B03AD
:1060200017001B0B064A9DE5BD42B2D89B460024D3
:10603000BFE68045B9D31A00C3E7C046FF0300009E
:10604000FF0700001E0400003E040000F0B54F46AC
:106050004646D6468446C0B58046194E18030F03FF
:106060004D00000B5C0082463F0B6D0DC90F914641
:10607000640DDB0F0120B5420AD0B44203D0A54223
:1060800001D157450CD01CBC90469946A246F0BDA4
:1060900066463E43F7D1AC42F5D154461443F2D1A3
:1060A0000120C845EFD1994207D0002DEBD16346BE
:1060B0001F433800471EB841E5E70020E3E7C0462C
:1060C000FF070000F0B54F464646D6464D00C0B526
:1060D0000E03C90F8A462C491F035C008046360B0D
:1060E0006D0D91463F0B640DDB0F8D421ED08C422F
:1060F00016D0002D1ED130438446002C01D13A43E6
:1061000023D06246002A1AD09A4529D0514602204F
:106110000139084001381CBC90469946A246F0BDA2
:1061200039001143E5D002204042F4E73043FAD170
:10613000AC420FD0002C0FD13A43E7D00CE0012243
:10614000013B934318000130E5E763460020002B34
:10615000E1D0DBE73A43E6D19A45D7D1A542D5DC79
:10616000A54205DBBE42D1D808D00020BE42D2D223
:1061700050460123013898430130CCE7C845C5D8C3
:106180000020C845F4D3C6E7FF070000F0B54F462E
:106190004646D6464D00C0B50E03C90F8A462E4965
:1061A0001F035C008046360B6D0D91463F0B640D5E
:1061B000DB0F8D4218D08C4211D0002D18D1304306
:1061C0008446002C1ED13A431CD163460020002B8C
:1061D00030D0514602200139084001382AE0390008
:1061E0001143EAD0022025E03043FBD1AC4226D057
:1061F000002C26D13A4324D15146022001390840CF
:10620000013817E06246002A0FD09A45E1D1A54235
:1062100005DBBE42DDD819D00020BE420AD250466E
:10622000012301389843013004E00122013B9343EC
:10623000180001301CBC90469946A246F0BD3A4376
:10624000D0D19A45C5D1A542C3DCE0E7C845C0D846
:106250000020C845E3D3EDE7FF070000F0B557463F
:10626000DE464E464546E0B5834606000F0348002D
:1062700087B092461D003F0B400DCC0F002800D187
:106280006FE0DE4B984238D08023FF001B041F4391
:10629000730F3B430193DA4B0027994600239B463B
:1062A000F60081442B0369001B0B52469846490DAA
:1062B000ED0F002900D185E0D04B994200D173E069
:1062C0004346DA0080231B0413435246CC48520F46
:1062D00084461343524600206144D2008944210081
:1062E000694000918C46012149448A460F2F00D90C
:1062F00090E0C449BF00CF59BF465B463B43019382
:1063000000D06AE102230827002681469B46C9E7A0
:1063100032005846019B61460091022800D175E089
:10632000032800D1FEE1012800D02CE10023002742
:10633000002600253F032A0D3F0BB34812053A43C0
:1063400002401B051343009A5B00D1075B080B4317
:106350003000190007B03CBC90469946A246AB46B7
:10636000F0BD5B463B43019300D12FE1002F00D1EC
:10637000A5E1380000F002FE03000B3B1C2B00DD02
:1063800096E11D22D31A5A460100DA405E460839CA
:106390008F4013008E403B4301939C4B00271B1AF8
:1063A000994600239B467DE7414653460B4393495C
:1063B0008C46E144002B00D01AE102220220174350
:1063C00000228CE7134300D10DE14346002B00D19E
:1063D00081E1404600F0D2FD02000B3A1C2A00DDAC
:1063E00072E10100434608398B4098461D239A1AF2
:1063F0005346D3401A004346134352468A40494607
:10640000081A824989468144002068E77B4B0027AF
:1064100000268EE7140C1204120C1100370C3604FF
:10642000350C794328008C462E0060436044834637
:1064300056432100300C804658467943404402912F
:10644000844506D98846802149028C46E04441466D
:1064500002913604010C360C00048B4681191E0C87
:106460001B041B0C0391190079438C4628007543CB
:106470006544A8465843050C45447743A94203D9CF
:10648000802149028C466744290C8C46390000045F
:10649000000C2D042D186144AB440591594604911C
:1064A00001990F043F0C080C3900514342439046B8
:1064B00002008C46090C8B4662437C4344445C4496
:1064C000A04503D98021490288464244210C8846D0
:1064D00061460904090C8C46390059434343704313
:1064E0007E430F0CF6182404BE19644442448C46C3
:1064F000B34203D980235B0298464044029B614625
:106500009846049B370443449B46AB45AD416B42E0
:106510000D0405992D0C8C467F196744FD18A8467B
:106520005D462D19A542A44193466442A446C34446
:10653000DC448F42BF4198459B4193459241A4451D
:10654000A4415B427F421F43360C52426442BF1952
:106550002243BF18624638184302D20D03991343F1
:106560006A020A43501E82416146ED0D2A434E02E3
:106570003243D90100D4B3E001265008324002432F
:10658000DE0732435B08224C5444002C62DD510785
:1065900009D00F201040042805D0101D90429241D0
:1065A00052429B180200D90104D580241948E40006
:1065B000034054441848844200DD27E75E075B022D
:1065C000D2081F0B630516435B0DB2E60023994604
:1065D0000133042700269B4664E603230197814686
:1065E0000C279B465EE6012201201743002276E637
:1065F000032303201F43434671E6C046FF07000004
:1066000001FCFFFF60770000FFFF0F800DFCFFFF24
:10661000FF030000FFFFFFFEFE07000000238027AE
:1066200000933F030026434B83E6019B3200A446C0
:10663000584670E6AC466EE6802701993F03394222
:106640002DD03B422BD11F433F033F0B009516003B
:10665000384B6EE601252D1B382D00DD66E61F2D1B
:1066600040DC35481C005044160082408440EE4017
:10667000501E824134431443EB40620709D00F227D
:106680002240042A05D02200141D94428041404239
:106690001B181A023ED501230027002649E6802751
:1066A000019B3F031F433F033F0B0094214B40E6F8
:1066B00003005A46283B9A40002601926DE6584650
:1066C00000F05CFC203057E603005246283B9A401D
:1066D0001300002293E6504600F050FC20307BE689
:1066E000CA4650E71F201E004042041BE640202DF2
:1066F00003D0124C5444A3401A43501E82413243EB
:1067000007260027164009D00F2000231040140050
:106710000428B9D122005E075B021F0BD208164382
:10672000002306E680273F031F433F033F0B16006D
:10673000004BFEE5FF0700001E0400003E040000C1
:10674000F8B557464E464546DE460C000903E0B50F
:10675000490A460F5F0031431E03DB0F760A9B4652
:10676000530F3343C84E6500C000E40FD2006D0DD7
:10677000A24681467F0D9C469046B74200D1B9E0C3
:106780005B46012673409B46EE1BA34500D183E088
:10679000002E63DD002F00D0B1E06346134300D12B
:1067A00023E1731E002B00D0BAE1861A6346B04283
:1067B00080410125C91A4042091A0B0200D447E161
:1067C00049024B0A98464346002B00D189E14046D6
:1067D00000F0D4FB0300083B1F2B00DD7CE12022EE
:1067E0003000D21A4146D040994002009E400A43F0
:1067F0009D4200DD6AE15D1B6B1C1F2B00DD94E1F7
:10680000202110003500C91A8E40DA408840DD4052
:10681000711E8E4111000722284300250643324095
:10682000002A09D00F233340042B05D0331DB34277
:10683000B641764289191E000B0200D43DE26A1C63
:10684000914B55056D0D9A4200D119E18F4AF6081A
:106850000A40570752023743120B9BE0002E00D02C
:10686000C5E06E1C7605760D012E00DC48E167461A
:10687000861ACB1BB042BF417F42B8461F00434639
:10688000FF1A3B00B8461B0200D55FE137439AD19F
:1068900000220024002579E0002E00DCFAE0002F21
:1068A00000D18DE0784B9D4267D0802367461B0462
:1068B0001F43BC46382E00DC52E1634613435A1E88
:1068C00093411E1886428041404209180B0200D4B1
:1068D000BEE06D4B01359D4200D1D2E06B4A73089A
:1068E0000A4001210E401E435108D30707221E43D0
:1068F000324095E71E00164300D045E740E7624B63
:106900009D423AD0802367461B041F43BC46382E65
:1069100000DDEBE01F2E00DC3AE133006746203B50
:10692000DF403B00202E05D04027BF1B6646BE40FF
:10693000324390464646721E96413343DAE0002BBE
:1069400000D114E26346134300D168E180234E076F
:10695000C008C9081B030643194208D06046C00896
:10696000184204D163460100D2085E071643F300C3
:106970009946C900720F444D11434B46DE08424B05
:106980004F073743CA089D4200D16EE012036D05E0
:10699000120B6D0D00211203130B0A0D12051A4381
:1069A0003B4B2D0513402B435B00E4075B0823435F
:1069B000380019003CBC90469946A246AB46F8BD4B
:1069C0006346134311D0731E002B00D007E18618D5
:1069D0008642804161444042091801250B0237D5A7
:1069E00002257BE73E00614691463500C5E75C46DF
:1069F000002D00D0E1E00B000343F3D0731C00D165
:106A0000ACE1214B9F4200D13AE1F343382B00DD4A
:106A10006FE11F2B00DD8CE120250E00ED1AAE404A
:106A2000B0460600AA46DE40454635432E00554690
:106A3000D940A8406346451EA8415B1A9C46304396
:106A4000161AB242924163465242991A3D00B4E688
:106A500007223240002A00D0E4E60B4BF6084F072D
:106A60003743CA089D4200D090E73B00134300D152
:106A7000A6E180231B031A431203120B024D89E780
:106A800015000022002785E7FF070000FFFF7FFFBA
:106A9000FFFF0F80002E00D0C7E06B1C5E05760D57
:106AA000012E00DCF0E0C84DAB4200D1B9E0851802
:106AB0000A00854289416244494251180722CE07A3
:106AC0006D082E43490832401D00A9E6BF49ED1A62
:106AD000114007223240A3E63200283882400026C7
:106AE00086E6300000F04AFA203073E6634613432E
:106AF0005A1E9341C61AB04280414042091A5CE6D0
:106B00000E00674606431743002D5ED1002E00D0CD
:106B1000F3E0002F00D11EE15C46614691462CE770
:106B2000A94FBE427BD01E00F1E610001F3DE84099
:106B3000202B03D04021CB1A9A401643731E9E414E
:106B40000722064332400021002583E7161A6346D8
:106B5000B2428041591A40420B1A98465C4632E6CE
:106B60001F2E00DDABE02027BB1B9A46634657462D
:106B7000BB40994613004F46F3401F433B00574626
:106B8000BA40571EBA4113436246F240891898E64C
:106B90002027BB1B9A4663465746BB4099461300C5
:106BA0004F46F3401F433B005746BA40571EBA4179
:106BB00013436246F240891A9CE7834B9F425FD0A1
:106BC00080252D047342294320E7002E0CD1002F8D
:106BD00000D1D0E05C46614691467B4DCDE67A4FD0
:106BE000BE421CD01E0065E6002F18D0C0084E071C
:106BF00006438020C9080003014208D06346DC0830
:106C0000044204D12100DA46D2085E071643F3009D
:106C1000994601245346C900720F11431C406A4D26
:106C2000ABE61D0000220027B4E6002D59D10B0071
:106C3000034300D1D6E6731C00D1B2E0624B9F4201
:106C40001ED0F343382B6FDC1F2B00DD97E020258F
:106C50000E00ED1AAE40B0460600AA46DE4045469C
:106C600035432E005546A840D940451EA8418C44C6
:106C70000643B61896429241514261443D0025E6D2
:106C80003D006146914678E60B000343002D00D09D
:106C900055E6002BF5D06346134300D16DE6861808
:106CA0008642804161444042091800220B0200D410
:106CB000D0E6464B01351940B2E5B1465DE63300FA
:106CC0006746203BDF403B00202E05D04027BF1BFE
:106CD0006646BE40324390464646721E9641334356
:106CE000EFE5394B9F42CBD080252D0473422943D9
:106CF000A8E70843411E8841A2E6002F00D13CE6E8
:106D00006346861ACF1AB0429B415B42FB1A9846F3
:106D10001B024ED5161A6346B2429241591A52428C
:106D2000891A5C4600227BE501430E00711E8E41EC
:106D30009FE71D000E00203DEE40B046202B04D002
:106D40004025EB1A99400843814648464346411E78
:106D50008841184374E60022002417E6161A634699
:106D6000B2429241591A5242891A3D0025E56146C4
:106D70009146154D01E680220024120379E61D009C
:106D80000E00203DEE40B046202B04D04025EB1AEB
:106D90009940084381464E464346711E8E411E432C
:106DA00067E7861896429B4161445B42C9183D00E3
:106DB0008CE547463743CED007224146324049E66C
:106DC00000273A00E6E5C046FF070000FFFF7FFF0F
:106DD00070B50C4E0D031C0349005B002D0B490DD3
:106DE000240B5B0DB14208D0064900208B4203D131
:106DF00014432000441EA04170BD05430120002D16
:106E0000FAD1F1E7FF07000030B5144D0A034B003B
:106E1000120B5B0DC90F0024AB4211DD104CA342D5
:106E200010DC8024640322430E4CE41A1F2C0CDD7A
:106E30000D48C31ADA4013005C42002900D11C003F
:106E4000200030BD094BCC18FAE7094DE040AC46B4
:106E500063449A4013000343EEE7C046FE0300007C
:106E60001D0400003304000013040000FFFFFF7F37
:106E7000EDFBFFFF10B5041E25D000F07FF8144B8A
:106E80001B1A5B055B0D0A2812DD0B3884400022BB
:106E90002403240B0021100024030A0D240B1205E7
:106EA00022430C4C1B05224013435B00590810BDC4
:106EB00002002100153291400A000B21081AC4403B
:106EC0002403240BE6E7002300240022E2E7C04667
:106ED0001E040000FFFF0F804100090E4B1C70B51F
:106EE000DBB24602750AC40F012B14DDE0239B00C0
:106EF0006D07360BCB1800210A0D280012051C4D1A
:106F000032435B052A405B0813435B00E4075B08E0
:106F10002343190070BD002914D1002D1ED0280074
:106F200000F02CF80A281CDC0B232A001B1ADA407C
:106F3000030015339D400F4B12031B1A5B05160B04
:106F40005B0DD8E7002D06D0320B802636036D0787
:106F50001643094BCFE7084B0026CCE70023002659
:106F6000C9E703002A000B3B9A400025E3E7C0462F
:106F7000FFFF0F8089030000FF0700001C21012391
:106F80001B04984201D3000C10391B0A984201D30C
:106F9000000A08391B09984201D30009043902A2EA
:106FA000105C40187047C046040302020101010151
:106FB000000000000000000070B500260C4D0D4CD4
:106FC000641BA410A64209D1002600F011F90A4D55
:106FD0000A4C641BA410A64205D170BDB300EB5847
:106FE00098470136EEE7B300EB5898470136F2E7D1
:106FF00084000020840000208400002098000020ED
:1070000010B5034B0100186800F06AF810BDC046C7
:107010002000002010B5034B0100186800F016F89E
:1070200010BDC04620000020002310B59A4200D1B8
:1070300010BDCC5CC4540133F8E70300121893422E
:1070400000D1704719700133F9E7000070B50500F1
:10705000002910D00C1F2368002B00DAE418280048
:1070600000F0B5F81D4A1368002B05D16360146069
:10707000280000F0ADF870BDA34209D9216860185E
:107080008342F3D118685B6841182160EEE7130072
:107090005A68002A01D0A242F9D919685818A042AA
:1070A0000BD120680918581819608242E0D1106885
:1070B0005268411819605A60DAE7A04202D90C23DD
:1070C0002B60D5E721686018824203D110685268AE
:1070D0004118216062605C60CAE7C046E00C002095
:1070E000032370B5CD1C9D43083506000C2D1ED220
:1070F0000C25A9421DD8300000F069F8254A146813
:107100002100002919D1244C2368002B03D1300021
:1071100000F044F820602900300000F03FF8431CE4
:107120002BD10C233000336000F052F803E0002D27
:10713000DFDA0C233360002070BD0B685B1B19D4B1
:107140000B2B03D90B60CC18256003E04B688C42F5
:107150000DD11360300000F03BF8200007220B3007
:10716000231D9043C31AE7D05A42E250E4E763601C
:107170000C00EFE70C004968C3E70323C41C9C43E1
:10718000A042E1D0211A300000F008F8431CDBD106
:10719000C7E7C046E00C0020E40C0020002370B5D7
:1071A000064C05000800236000F014F8431C03D1CE
:1071B0002368002B00D02B6070BDC046EC0C002073
:1071C0000023C25C0133002AFBD1581E7047704770
:1071D00070470000044A1368002B00D1034B1818B5
:1071E000106018007047C046E80C0020F00C00202A
:1071F000F8B5C046F8BC08BC9E467047F8B5C04616
:10720000F8BC08BC9E467047494E49545F535441F0
:1072100052545F53454E534F5200494E49545F53A9
:10722000454E445F524551554553540053656E6475
:10723000206661696C6564004761732056616C75F6
:107240006520313A20004761732056616C756520D6
:10725000323A2000537461747573313A20005374CC
:1072600061747573323A2000496E76616C696420EE
:10727000726573706F6E736520636F64653A20008A
:1072800054696D656F75742077616974696E6720E4
:10729000666F722073656E736F7220726573706FA4
:1072A0006E7365002D2D2D2D2D2D2D2D2D2D2D2D7C
:1072B0002D2D2D2D2D2D2D2D2D2D004D61696E2067
:1072C00073746172746564000000000016000000B1
:1072D000080000001C000000FF000004000406007D
:1072E0000000000017000000080000001C00000063
:1072F000FF00010401040700000000000A00000074
:10730000080000001C000000120000010001FF0046
:10731000000000000B000000080000001C0000003E
:10732000130001010101FF00010000000A0000003C
:10733000080000001C000000FF00000500050A0016
:10734000010000000B000000080000001C0000000D
:10735000FF00010501050B00000000001400000003
:10736000080000002C000000FF00020002000400E2
:107370000000000015000000080000002C000000C4
:10738000FF000300030005000000000010000000E3
:10739000020000001C000000FF00000200020000CC
:1073A00000000000110000000200000004000000C6
:1073B000FF00FFFFFFFF01000000000013000000BE
:1073C000020000001C000000FF0001030103FF0099
:1073D000000000000800000003000000040000009E
:1073E0001000FFFFFFFF1000000000000900000078
:1073F00003000000040000001100FFFFFFFFFF007A
:10740000010000001700000003000000040000005D
:10741000FF00FFFFFFFFFF0001000000160000005B
:107420000300000004000000FF00FFFFFFFFFF005B
:107430000000000002000000010000000600000043
:107440000000FFFFFFFFFF0001000000020000003E
:1074500001000000040000000A00FFFFFFFF02001F
:107460000100000003000000010000000400000013
:107470000B00FFFFFFFF03000000000004000000FE
:10748000010000001C000000040000000000FF00DC
:107490000000000005000000010000001C000000CA
:1074A000050001000100FF000000000006000000D0
:1074B00001000000040000000600FFFFFFFFFF00C6
:1074C00000000000070000000100000004000000B0
:1074D0000700FFFFFFFFFF00000000001800000092
:1074E0000600000000000000FF00FFFFFFFFFF009C
:1074F000000000001900000006000000000000006D
:10750000FF00FFFFFFFFFF0000000000120000006F
:107510000800000004000000FF00FFFFFFFFFF0065
:10752000000000000300000008000000040000004C
:10753000FF00FFFFFFFFFF00000000000C00000045
:107540000300000000000000FF00FFFFFFFFFF003E
:10755000000000000D00000003000000000000001B
:10756000FF00FFFFFFFFFF00000000000E00000013
:107570000800000000000000FF00FFFFFFFFFF0009
:10758000000000000F0000000300000000000000E9
:10759000FF00FFFFFFFFFF00000000001B000000D6
:1075A0000800000000000000FF00FFFFFFFF0F00C9
:1075B00001000000080000000800000006000000B4
:1075C0000200FFFFFFFFFF000100000009000000B4
:1075D000010000001800000003000104010409007C
:1075E0000000000000000000080000000000000093
:1075F000FF00FFFFFFFFFF00000000000100000090
:107600000800000000000000FF00FFFFFFFFFF0078
:10761000000000001C000000080000000400000042
:10762000FF00FFFFFFFFFF00000000000000000060
:107630004B290000812B000047290000652B00002A
:10764000452B0000BD2B0000A12B0000732B000078
:1076500061290000C92800008D2A0000F1280000DF
:1076600045290000F0FFFFFF00000000352B00005F
:107670007D2A0000E32B0000E12B000035290000EB
:107680000000000000000000692F0000253200000B
:107690000D320000EB310000CD2D0000CF2D000099
:1076A000BD2E000041726475696E6F204D4B5220F3
:1076B00057694669203130313000040309044172B2
:1076C0006475696E6F204C4C430012010002EF029A
:1076D0000140412354800001010203016E616E00EC
:1076E000696E66006F7666000D0A000000000000FB
:1076F000000000004D480000853D00007347000079
:107700002F4700004947000001490000894400005C
:10771000794400000D450000A344000075440000BA
:10772000EC5C00005E5B0000A25B0000065B0000FA
:10773000A25B0000925C0000A25B0000065B000000
:107740005E5B00005E5B0000925C0000065B000078
:10775000FE5A0000FE5A0000FE5A0000A05C000025
:107760001464000016630000166300003466000015
:1077700010630000106300001C6600003466000007
:10778000106300001C6600001063000034660000F7
:107790002A6600002A6600002A660000386600009B
:0477A00000000000E5
:1077A400FFFFFFFF00C2010000000800FFFFFFFF12
:1077B400FFFFFFFF40420F000A0000000A00000024
:1077C4002400002000000000000000000000000071
:1077D40000000000000000000000000000000000A5
:1077E4000000000000000000000000000000000095
:1077F4000000000000000000000000000000000085
:107804000000000000000000000000000000000074
:107814000000000000000000000000000000000064
:1078240000000000DD200000C92600002928000017
:10783400952C0000753D0000B520000000000000FC
:04000003000049654B
:00000001FF
